{
  "address": "0xFFc886a0C539e2AB50211D7C55f01408507a3c65",
  "abi": [
    {
      "inputs": [
        {
          "internalType": "string",
          "name": "name",
          "type": "string"
        },
        {
          "internalType": "string",
          "name": "symbol",
          "type": "string"
        }
      ],
      "stateMutability": "nonpayable",
      "type": "constructor"
    },
    {
      "anonymous": false,
      "inputs": [
        {
          "indexed": true,
          "internalType": "address",
          "name": "owner",
          "type": "address"
        },
        {
          "indexed": true,
          "internalType": "address",
          "name": "approved",
          "type": "address"
        },
        {
          "indexed": true,
          "internalType": "uint256",
          "name": "tokenId",
          "type": "uint256"
        }
      ],
      "name": "Approval",
      "type": "event"
    },
    {
      "anonymous": false,
      "inputs": [
        {
          "indexed": true,
          "internalType": "address",
          "name": "owner",
          "type": "address"
        },
        {
          "indexed": true,
          "internalType": "address",
          "name": "operator",
          "type": "address"
        },
        {
          "indexed": false,
          "internalType": "bool",
          "name": "approved",
          "type": "bool"
        }
      ],
      "name": "ApprovalForAll",
      "type": "event"
    },
    {
      "anonymous": false,
      "inputs": [
        {
          "indexed": true,
          "internalType": "bytes32",
          "name": "role",
          "type": "bytes32"
        },
        {
          "indexed": true,
          "internalType": "bytes32",
          "name": "previousAdminRole",
          "type": "bytes32"
        },
        {
          "indexed": true,
          "internalType": "bytes32",
          "name": "newAdminRole",
          "type": "bytes32"
        }
      ],
      "name": "RoleAdminChanged",
      "type": "event"
    },
    {
      "anonymous": false,
      "inputs": [
        {
          "indexed": true,
          "internalType": "bytes32",
          "name": "role",
          "type": "bytes32"
        },
        {
          "indexed": true,
          "internalType": "address",
          "name": "account",
          "type": "address"
        },
        {
          "indexed": true,
          "internalType": "address",
          "name": "sender",
          "type": "address"
        }
      ],
      "name": "RoleGranted",
      "type": "event"
    },
    {
      "anonymous": false,
      "inputs": [
        {
          "indexed": true,
          "internalType": "bytes32",
          "name": "role",
          "type": "bytes32"
        },
        {
          "indexed": true,
          "internalType": "address",
          "name": "account",
          "type": "address"
        },
        {
          "indexed": true,
          "internalType": "address",
          "name": "sender",
          "type": "address"
        }
      ],
      "name": "RoleRevoked",
      "type": "event"
    },
    {
      "anonymous": false,
      "inputs": [
        {
          "indexed": true,
          "internalType": "address",
          "name": "from",
          "type": "address"
        },
        {
          "indexed": true,
          "internalType": "address",
          "name": "to",
          "type": "address"
        },
        {
          "indexed": true,
          "internalType": "uint256",
          "name": "tokenId",
          "type": "uint256"
        }
      ],
      "name": "Transfer",
      "type": "event"
    },
    {
      "anonymous": false,
      "inputs": [
        {
          "indexed": false,
          "internalType": "string",
          "name": "",
          "type": "string"
        }
      ],
      "name": "URIBaseUpdated",
      "type": "event"
    },
    {
      "anonymous": false,
      "inputs": [
        {
          "indexed": false,
          "internalType": "address",
          "name": "recipient",
          "type": "address"
        },
        {
          "indexed": false,
          "internalType": "uint256",
          "name": "bps",
          "type": "uint256"
        }
      ],
      "name": "UpdatedRoyalty",
      "type": "event"
    },
    {
      "inputs": [],
      "name": "DEFAULT_ADMIN_ROLE",
      "outputs": [
        {
          "internalType": "bytes32",
          "name": "",
          "type": "bytes32"
        }
      ],
      "stateMutability": "view",
      "type": "function"
    },
    {
      "inputs": [],
      "name": "MINTER_ROLE",
      "outputs": [
        {
          "internalType": "bytes32",
          "name": "",
          "type": "bytes32"
        }
      ],
      "stateMutability": "view",
      "type": "function"
    },
    {
      "inputs": [],
      "name": "_artistAuctionRoyaltyAddress",
      "outputs": [
        {
          "internalType": "address",
          "name": "",
          "type": "address"
        }
      ],
      "stateMutability": "view",
      "type": "function"
    },
    {
      "inputs": [
        {
          "internalType": "address",
          "name": "to",
          "type": "address"
        },
        {
          "internalType": "uint256",
          "name": "tokenId",
          "type": "uint256"
        }
      ],
      "name": "approve",
      "outputs": [],
      "stateMutability": "nonpayable",
      "type": "function"
    },
    {
      "inputs": [
        {
          "internalType": "address",
          "name": "owner",
          "type": "address"
        }
      ],
      "name": "balanceOf",
      "outputs": [
        {
          "internalType": "uint256",
          "name": "",
          "type": "uint256"
        }
      ],
      "stateMutability": "view",
      "type": "function"
    },
    {
      "inputs": [
        {
          "internalType": "uint256",
          "name": "tokenId",
          "type": "uint256"
        }
      ],
      "name": "burn",
      "outputs": [],
      "stateMutability": "nonpayable",
      "type": "function"
    },
    {
      "inputs": [
        {
          "internalType": "uint256",
          "name": "tokenId",
          "type": "uint256"
        }
      ],
      "name": "getApproved",
      "outputs": [
        {
          "internalType": "address",
          "name": "",
          "type": "address"
        }
      ],
      "stateMutability": "view",
      "type": "function"
    },
    {
      "inputs": [],
      "name": "getArtistAuctionRoyaltyAddress",
      "outputs": [
        {
          "internalType": "address",
          "name": "",
          "type": "address"
        }
      ],
      "stateMutability": "view",
      "type": "function"
    },
    {
      "inputs": [
        {
          "internalType": "uint256",
          "name": "tokenId",
          "type": "uint256"
        }
      ],
      "name": "getIPFSCIDs",
      "outputs": [
        {
          "internalType": "string",
          "name": "",
          "type": "string"
        },
        {
          "internalType": "string",
          "name": "",
          "type": "string"
        }
      ],
      "stateMutability": "view",
      "type": "function"
    },
    {
      "inputs": [
        {
          "internalType": "bytes32",
          "name": "role",
          "type": "bytes32"
        }
      ],
      "name": "getRoleAdmin",
      "outputs": [
        {
          "internalType": "bytes32",
          "name": "",
          "type": "bytes32"
        }
      ],
      "stateMutability": "view",
      "type": "function"
    },
    {
      "inputs": [
        {
          "internalType": "uint256",
          "name": "tokenId",
          "type": "uint256"
        }
      ],
      "name": "getRoyalties",
      "outputs": [
        {
          "components": [
            {
              "internalType": "address payable",
              "name": "account",
              "type": "address"
            },
            {
              "internalType": "uint96",
              "name": "value",
              "type": "uint96"
            }
          ],
          "internalType": "struct LibPart.Part[]",
          "name": "",
          "type": "tuple[]"
        }
      ],
      "stateMutability": "view",
      "type": "function"
    },
    {
      "inputs": [
        {
          "internalType": "uint256",
          "name": "tokenId",
          "type": "uint256"
        }
      ],
      "name": "getSubmitterPayoutInformation",
      "outputs": [
        {
          "internalType": "address",
          "name": "",
          "type": "address"
        }
      ],
      "stateMutability": "view",
      "type": "function"
    },
    {
      "inputs": [
        {
          "internalType": "bytes32",
          "name": "role",
          "type": "bytes32"
        },
        {
          "internalType": "address",
          "name": "account",
          "type": "address"
        }
      ],
      "name": "grantRole",
      "outputs": [],
      "stateMutability": "nonpayable",
      "type": "function"
    },
    {
      "inputs": [
        {
          "internalType": "bytes32",
          "name": "role",
          "type": "bytes32"
        },
        {
          "internalType": "address",
          "name": "account",
          "type": "address"
        }
      ],
      "name": "hasRole",
      "outputs": [
        {
          "internalType": "bool",
          "name": "",
          "type": "bool"
        }
      ],
      "stateMutability": "view",
      "type": "function"
    },
    {
      "inputs": [
        {
          "internalType": "address",
          "name": "owner",
          "type": "address"
        },
        {
          "internalType": "address",
          "name": "operator",
          "type": "address"
        }
      ],
      "name": "isApprovedForAll",
      "outputs": [
        {
          "internalType": "bool",
          "name": "",
          "type": "bool"
        }
      ],
      "stateMutability": "view",
      "type": "function"
    },
    {
      "inputs": [
        {
          "internalType": "address",
          "name": "to",
          "type": "address"
        },
        {
          "internalType": "string",
          "name": "metadataCID",
          "type": "string"
        },
        {
          "internalType": "string",
          "name": "contentCID",
          "type": "string"
        },
        {
          "internalType": "address",
          "name": "submitterAddress",
          "type": "address"
        }
      ],
      "name": "mint",
      "outputs": [],
      "stateMutability": "nonpayable",
      "type": "function"
    },
    {
      "inputs": [],
      "name": "name",
      "outputs": [
        {
          "internalType": "string",
          "name": "",
          "type": "string"
        }
      ],
      "stateMutability": "view",
      "type": "function"
    },
    {
      "inputs": [
        {
          "internalType": "uint256",
          "name": "tokenId",
          "type": "uint256"
        }
      ],
      "name": "ownerOf",
      "outputs": [
        {
          "internalType": "address",
          "name": "",
          "type": "address"
        }
      ],
      "stateMutability": "view",
      "type": "function"
    },
    {
      "inputs": [
        {
          "internalType": "bytes32",
          "name": "role",
          "type": "bytes32"
        },
        {
          "internalType": "address",
          "name": "account",
          "type": "address"
        }
      ],
      "name": "renounceRole",
      "outputs": [],
      "stateMutability": "nonpayable",
      "type": "function"
    },
    {
      "inputs": [
        {
          "internalType": "bytes32",
          "name": "role",
          "type": "bytes32"
        },
        {
          "internalType": "address",
          "name": "account",
          "type": "address"
        }
      ],
      "name": "revokeRole",
      "outputs": [],
      "stateMutability": "nonpayable",
      "type": "function"
    },
    {
      "inputs": [
        {
          "internalType": "uint256",
          "name": "tokenId",
          "type": "uint256"
        },
        {
          "internalType": "uint256",
          "name": "salePrice",
          "type": "uint256"
        }
      ],
      "name": "royaltyInfo",
      "outputs": [
        {
          "internalType": "address",
          "name": "receiver",
          "type": "address"
        },
        {
          "internalType": "uint256",
          "name": "royaltyAmount",
          "type": "uint256"
        }
      ],
      "stateMutability": "view",
      "type": "function"
    },
    {
      "inputs": [
        {
          "internalType": "address",
          "name": "from",
          "type": "address"
        },
        {
          "internalType": "address",
          "name": "to",
          "type": "address"
        },
        {
          "internalType": "uint256",
          "name": "tokenId",
          "type": "uint256"
        }
      ],
      "name": "safeTransferFrom",
      "outputs": [],
      "stateMutability": "nonpayable",
      "type": "function"
    },
    {
      "inputs": [
        {
          "internalType": "address",
          "name": "from",
          "type": "address"
        },
        {
          "internalType": "address",
          "name": "to",
          "type": "address"
        },
        {
          "internalType": "uint256",
          "name": "tokenId",
          "type": "uint256"
        },
        {
          "internalType": "bytes",
          "name": "_data",
          "type": "bytes"
        }
      ],
      "name": "safeTransferFrom",
      "outputs": [],
      "stateMutability": "nonpayable",
      "type": "function"
    },
    {
      "inputs": [
        {
          "internalType": "address",
          "name": "operator",
          "type": "address"
        },
        {
          "internalType": "bool",
          "name": "approved",
          "type": "bool"
        }
      ],
      "name": "setApprovalForAll",
      "outputs": [],
      "stateMutability": "nonpayable",
      "type": "function"
    },
    {
      "inputs": [
        {
          "internalType": "string",
          "name": "newURI",
          "type": "string"
        }
      ],
      "name": "setIPFSBaseURI",
      "outputs": [],
      "stateMutability": "nonpayable",
      "type": "function"
    },
    {
      "inputs": [
        {
          "internalType": "address",
          "name": "royaltyReceiver",
          "type": "address"
        },
        {
          "internalType": "uint256",
          "name": "royaltyBPS",
          "type": "uint256"
        }
      ],
      "name": "setRoyaltyInfo",
      "outputs": [],
      "stateMutability": "nonpayable",
      "type": "function"
    },
    {
      "inputs": [
        {
          "internalType": "bytes4",
          "name": "interfaceId",
          "type": "bytes4"
        }
      ],
      "name": "supportsInterface",
      "outputs": [
        {
          "internalType": "bool",
          "name": "",
          "type": "bool"
        }
      ],
      "stateMutability": "view",
      "type": "function"
    },
    {
      "inputs": [],
      "name": "symbol",
      "outputs": [
        {
          "internalType": "string",
          "name": "",
          "type": "string"
        }
      ],
      "stateMutability": "view",
      "type": "function"
    },
    {
      "inputs": [
        {
          "internalType": "uint256",
          "name": "index",
          "type": "uint256"
        }
      ],
      "name": "tokenByIndex",
      "outputs": [
        {
          "internalType": "uint256",
          "name": "",
          "type": "uint256"
        }
      ],
      "stateMutability": "view",
      "type": "function"
    },
    {
      "inputs": [
        {
          "internalType": "address",
          "name": "owner",
          "type": "address"
        },
        {
          "internalType": "uint256",
          "name": "index",
          "type": "uint256"
        }
      ],
      "name": "tokenOfOwnerByIndex",
      "outputs": [
        {
          "internalType": "uint256",
          "name": "",
          "type": "uint256"
        }
      ],
      "stateMutability": "view",
      "type": "function"
    },
    {
      "inputs": [
        {
          "internalType": "uint256",
          "name": "tokenId",
          "type": "uint256"
        }
      ],
      "name": "tokenURI",
      "outputs": [
        {
          "internalType": "string",
          "name": "",
          "type": "string"
        }
      ],
      "stateMutability": "view",
      "type": "function"
    },
    {
      "inputs": [],
      "name": "totalSupply",
      "outputs": [
        {
          "internalType": "uint256",
          "name": "",
          "type": "uint256"
        }
      ],
      "stateMutability": "view",
      "type": "function"
    },
    {
      "inputs": [
        {
          "internalType": "address",
          "name": "from",
          "type": "address"
        },
        {
          "internalType": "address",
          "name": "to",
          "type": "address"
        },
        {
          "internalType": "uint256",
          "name": "tokenId",
          "type": "uint256"
        }
      ],
      "name": "transferFrom",
      "outputs": [],
      "stateMutability": "nonpayable",
      "type": "function"
    },
    {
      "inputs": [
        {
          "internalType": "address",
          "name": "newArtistAuctionRoyaltyAddress",
          "type": "address"
        }
      ],
      "name": "updateArtistAuctionRoyaltyAddress",
      "outputs": [],
      "stateMutability": "nonpayable",
      "type": "function"
    }
  ],
  "transactionHash": "0x684c0d543e484d9ac7dbaa0124818e71a41a0928c92d26ef734149f3b5b1df0b",
  "args": [
    "HollyPlus+",
    "HOLLYPLUS"
  ],
  "solcInputHash": "7fe4f7dcc9c9f5a1d6bd56f7f6ac9372",
  "bytecode": "0x60806040523480156200001157600080fd5b5060405162002ae838038062002ae8833981016040819052620000349162000318565b8151829082906200004d906001906020850190620001bb565b50805162000063906002906020840190620001bb565b505060408051808201909152600780825266697066733a2f2f60c81b6020909201918252620000979250600f9190620001bb565b50620000af600e6200010260201b6200117f1760201c565b620000bc6000336200010b565b620000e87f9f2df0fed2c77648de5860a4cc508cd0818c85b8b8a1ab4ceeef8d981c8956a6336200010b565b5050600d80546001600160a01b03191633179055620003d5565b80546001019055565b6200011782826200011b565b5050565b6000828152602081815260408083206001600160a01b038516845290915290205460ff1662000117576000828152602081815260408083206001600160a01b03851684529091529020805460ff19166001179055620001773390565b6001600160a01b0316816001600160a01b0316837f2f8788117e7eff1d82e926ec794901d17c78024a50270940304540a733656f0d60405160405180910390a45050565b828054620001c99062000382565b90600052602060002090601f016020900481019282620001ed576000855562000238565b82601f106200020857805160ff191683800117855562000238565b8280016001018555821562000238579182015b82811115620002385782518255916020019190600101906200021b565b50620002469291506200024a565b5090565b5b808211156200024657600081556001016200024b565b600082601f8301126200027357600080fd5b81516001600160401b0380821115620002905762000290620003bf565b604051601f8301601f19908116603f01168101908282118183101715620002bb57620002bb620003bf565b81604052838152602092508683858801011115620002d857600080fd5b600091505b83821015620002fc5785820183015181830184015290820190620002dd565b838211156200030e5760008385830101525b9695505050505050565b600080604083850312156200032c57600080fd5b82516001600160401b03808211156200034457600080fd5b620003528683870162000261565b935060208501519150808211156200036957600080fd5b50620003788582860162000261565b9150509250929050565b600181811c908216806200039757607f821691505b60208210811415620003b957634e487b7160e01b600052602260045260246000fd5b50919050565b634e487b7160e01b600052604160045260246000fd5b61270380620003e56000396000f3fe608060405234801561001057600080fd5b50600436106102065760003560e01c806370a082311161011a578063ba3737cc116100ad578063d53913931161007c578063d539139314610494578063d547741f146104bb578063d8221666146104ce578063e2e784d5146104e1578063e985e9c5146104f457600080fd5b8063ba3737cc1461043b578063bb3bafd61461044e578063bf1696ce1461046e578063c87b56dd1461048157600080fd5b80639d46de94116100e95780639d46de94146103fa578063a217fddf1461040d578063a22cb46514610415578063b88d4fde1461042857600080fd5b806370a08231146103bb57806391d14854146103ce57806395d89b41146103e15780639b16f2a0146103e957600080fd5b80632f2ff15d1161019d57806342966c681161016c57806342966c681461034e5780634b8396f3146103615780634f6ccce7146103825780636352211e1461039557806365a1cd85146103a857600080fd5b80632f2ff15d146103025780632f745c591461031557806336568abe1461032857806342842e0e1461033b57600080fd5b806318160ddd116101d957806318160ddd1461028857806323b872dd1461029a578063248a9ca3146102ad5780632a55205a146102d057600080fd5b806301ffc9a71461020b57806306fdde0314610233578063081812fc14610248578063095ea7b314610273575b600080fd5b61021e6102193660046121dc565b610530565b60405190151581526020015b60405180910390f35b61023b610541565b60405161022a9190612460565b61025b6102563660046121a0565b6105d3565b6040516001600160a01b03909116815260200161022a565b610286610281366004612176565b61066d565b005b6009545b60405190815260200161022a565b6102866102a8366004611ffd565b610783565b61028c6102bb3660046121a0565b60009081526020819052604090206001015490565b6102e36102de36600461224b565b6107b5565b604080516001600160a01b03909316835260208301919091520161022a565b6102866103103660046121b9565b6107f6565b61028c610323366004612176565b61081c565b6102866103363660046121b9565b6108b2565b610286610349366004611ffd565b610930565b61028661035c3660046121a0565b61094b565b61037461036f3660046121a0565b6109c5565b60405161022a929190612473565b61028c6103903660046121a0565b610b31565b61025b6103a33660046121a0565b610bc4565b6102866103b6366004611faf565b610c3b565b61028c6103c9366004611faf565b610c6a565b61021e6103dc3660046121b9565b610cf1565b61023b610d1a565b600d546001600160a01b031661025b565b61025b6104083660046121a0565b610d29565b61028c600081565b6102866104233660046120b5565b610d7c565b610286610436366004612039565b610e41565b6102866104493660046120f1565b610e79565b61046161045c3660046121a0565b610f60565b60405161022a91906123fa565b61028661047c366004612216565b611017565b61023b61048f3660046121a0565b611072565b61028c7f9f2df0fed2c77648de5860a4cc508cd0818c85b8b8a1ab4ceeef8d981c8956a681565b6102866104c93660046121b9565b6110e2565b600d5461025b906001600160a01b031681565b6102866104ef366004612176565b611108565b61021e610502366004611fca565b6001600160a01b03918216600090815260066020908152604080832093909416825291909152205460ff1690565b600061053b82611188565b92915050565b60606001805461055090612624565b80601f016020809104026020016040519081016040528092919081815260200182805461057c90612624565b80156105c95780601f1061059e576101008083540402835291602001916105c9565b820191906000526020600020905b8154815290600101906020018083116105ac57829003601f168201915b5050505050905090565b6000818152600360205260408120546001600160a01b03166106515760405162461bcd60e51b815260206004820152602c60248201527f4552433732313a20617070726f76656420717565727920666f72206e6f6e657860448201526b34b9ba32b73a103a37b5b2b760a11b60648201526084015b60405180910390fd5b506000908152600560205260409020546001600160a01b031690565b600061067882610bc4565b9050806001600160a01b0316836001600160a01b031614156106e65760405162461bcd60e51b815260206004820152602160248201527f4552433732313a20617070726f76616c20746f2063757272656e74206f776e656044820152603960f91b6064820152608401610648565b336001600160a01b038216148061070257506107028133610502565b6107745760405162461bcd60e51b815260206004820152603860248201527f4552433732313a20617070726f76652063616c6c6572206973206e6f74206f7760448201527f6e6572206e6f7220617070726f76656420666f7220616c6c00000000000000006064820152608401610648565b61077e83836111c8565b505050565b61078e335b82611236565b6107aa5760405162461bcd60e51b815260040161064890612542565b61077e83838361132d565b600c5460009081906001600160a01b03166107d4620f424060646125ab565b600b546107e190866125ab565b6107eb91906125ab565b915091509250929050565b60008281526020819052604090206001015461081281336114d8565b61077e838361153c565b600061082783610c6a565b82106108895760405162461bcd60e51b815260206004820152602b60248201527f455243373231456e756d657261626c653a206f776e657220696e646578206f7560448201526a74206f6620626f756e647360a81b6064820152608401610648565b506001600160a01b03919091166000908152600760209081526040808320938352929052205490565b6001600160a01b03811633146109225760405162461bcd60e51b815260206004820152602f60248201527f416363657373436f6e74726f6c3a2063616e206f6e6c792072656e6f756e636560448201526e103937b632b9903337b91039b2b63360891b6064820152608401610648565b61092c82826115c0565b5050565b61077e83838360405180602001604052806000815250610e41565b61095433610788565b6109b95760405162461bcd60e51b815260206004820152603060248201527f4552433732314275726e61626c653a2063616c6c6572206973206e6f74206f7760448201526f1b995c881b9bdc88185c1c1c9bdd995960821b6064820152608401610648565b6109c281611625565b50565b6060806000601060008581526020019081526020016000206040518060600160405290816000820180546109f890612624565b80601f0160208091040260200160405190810160405280929190818152602001828054610a2490612624565b8015610a715780601f10610a4657610100808354040283529160200191610a71565b820191906000526020600020905b815481529060010190602001808311610a5457829003601f168201915b50505050508152602001600182018054610a8a90612624565b80601f0160208091040260200160405190810160405280929190818152602001828054610ab690612624565b8015610b035780601f10610ad857610100808354040283529160200191610b03565b820191906000526020600020905b815481529060010190602001808311610ae657829003601f168201915b5050509183525050600291909101546001600160a01b03166020918201528151910151909590945092505050565b6000610b3c60095490565b8210610b9f5760405162461bcd60e51b815260206004820152602c60248201527f455243373231456e756d657261626c653a20676c6f62616c20696e646578206f60448201526b7574206f6620626f756e647360a01b6064820152608401610648565b60098281548110610bb257610bb261268b565b90600052602060002001549050919050565b6000818152600360205260408120546001600160a01b03168061053b5760405162461bcd60e51b815260206004820152602960248201527f4552433732313a206f776e657220717565727920666f72206e6f6e657869737460448201526832b73a103a37b5b2b760b91b6064820152608401610648565b6000610c4781336114d8565b50600d80546001600160a01b0319166001600160a01b0392909216919091179055565b60006001600160a01b038216610cd55760405162461bcd60e51b815260206004820152602a60248201527f4552433732313a2062616c616e636520717565727920666f7220746865207a65604482015269726f206164647265737360b01b6064820152608401610648565b506001600160a01b031660009081526004602052604090205490565b6000918252602082815260408084206001600160a01b0393909316845291905290205460ff1690565b60606002805461055090612624565b6000818152600360205260408120546001600160a01b0316610d5d5760405162461bcd60e51b8152600401610648906124f3565b506000908152601060205260409020600201546001600160a01b031690565b6001600160a01b038216331415610dd55760405162461bcd60e51b815260206004820152601960248201527f4552433732313a20617070726f766520746f2063616c6c6572000000000000006044820152606401610648565b3360008181526006602090815260408083206001600160a01b03871680855290835292819020805460ff191686151590811790915590519081529192917f17307eab39ab6107e8899845ad3d59bd9653f200f220920489ca2b5937696c31910160405180910390a35050565b610e4b3383611236565b610e675760405162461bcd60e51b815260040161064890612542565b610e73848484846116cc565b50505050565b7f9f2df0fed2c77648de5860a4cc508cd0818c85b8b8a1ab4ceeef8d981c8956a6610ea481336114d8565b610eb685610eb1600e5490565b6116ff565b6040518060600160405280858152602001848152602001836001600160a01b031681525060106000610ee7600e5490565b8152602080820192909252604001600020825180519192610f0d92849290910190611e64565b506020828101518051610f269260018501920190611e64565b5060409190910151600290910180546001600160a01b0319166001600160a01b03909216919091179055600e805460010190555050505050565b60408051600180825281830190925260609160009190816020015b6040805180820190915260008082526020820152815260200190600190039081610f7b575050600c5481519192506001600160a01b0316908290600090610fc457610fc461268b565b60209081029190910101516001600160a01b039091169052600b5481518290600090610ff257610ff261268b565b6020908102919091018101516bffffffffffffffffffffffff90921691015292915050565b600061102381336114d8565b815161103690600f906020850190611e64565b507ff9d51c28878a42d330df350cf1ab50db1877847217d099ba2d7a0cfe803e59bd826040516110669190612460565b60405180910390a15050565b6000818152600360205260409020546060906001600160a01b03166110a95760405162461bcd60e51b8152600401610648906124f3565b60008281526010602090815260409182902091516110cc92600f92909101612333565b6040516020818303038152906040529050919050565b6000828152602081905260409020600101546110fe81336114d8565b61077e83836115c0565b600061111481336114d8565b61271082106111755760405162461bcd60e51b815260206004820152602760248201527f526f79616c7479206e6565647320746f206265206c657373207468616e2031306044820152663030302062707360c81b6064820152608401610648565b61077e838361184d565b80546001019055565b60006001600160e01b03198216631131d2f360e21b14806111b957506001600160e01b0319821663152a902d60e11b145b8061053b575061053b826118c7565b600081815260056020526040902080546001600160a01b0319166001600160a01b03841690811790915581906111fd82610bc4565b6001600160a01b03167f8c5be1e5ebec7d5bd14f71427d1e84f3dd0314c0f7b2291e5b200ac8c7c3b92560405160405180910390a45050565b6000818152600360205260408120546001600160a01b03166112af5760405162461bcd60e51b815260206004820152602c60248201527f4552433732313a206f70657261746f7220717565727920666f72206e6f6e657860448201526b34b9ba32b73a103a37b5b2b760a11b6064820152608401610648565b60006112ba83610bc4565b9050806001600160a01b0316846001600160a01b031614806112f55750836001600160a01b03166112ea846105d3565b6001600160a01b0316145b8061132557506001600160a01b0380821660009081526006602090815260408083209388168352929052205460ff165b949350505050565b826001600160a01b031661134082610bc4565b6001600160a01b0316146113a85760405162461bcd60e51b815260206004820152602960248201527f4552433732313a207472616e73666572206f6620746f6b656e2074686174206960448201526839903737ba1037bbb760b91b6064820152608401610648565b6001600160a01b03821661140a5760405162461bcd60e51b8152602060048201526024808201527f4552433732313a207472616e7366657220746f20746865207a65726f206164646044820152637265737360e01b6064820152608401610648565b6114158383836118ec565b6114206000826111c8565b6001600160a01b03831660009081526004602052604081208054600192906114499084906125ca565b90915550506001600160a01b0382166000908152600460205260408120805460019290611477908490612593565b909155505060008181526003602052604080822080546001600160a01b0319166001600160a01b0386811691821790925591518493918716917fddf252ad1be2c89b69c2b068fc378daa952ba7f163c4a11628f55a4df523b3ef91a4505050565b6114e28282610cf1565b61092c576114fa816001600160a01b031660146118f7565b6115058360206118f7565b604051602001611516929190612348565b60408051601f198184030181529082905262461bcd60e51b825261064891600401612460565b6115468282610cf1565b61092c576000828152602081815260408083206001600160a01b03851684529091529020805460ff1916600117905561157c3390565b6001600160a01b0316816001600160a01b0316837f2f8788117e7eff1d82e926ec794901d17c78024a50270940304540a733656f0d60405160405180910390a45050565b6115ca8282610cf1565b1561092c576000828152602081815260408083206001600160a01b0385168085529252808320805460ff1916905551339285917ff6391f5c32d9c69d2a47ea670b442974b53935d1edc7fd64eb21e047a839171b9190a45050565b600061163082610bc4565b905061163e816000846118ec565b6116496000836111c8565b6001600160a01b03811660009081526004602052604081208054600192906116729084906125ca565b909155505060008281526003602052604080822080546001600160a01b0319169055518391906001600160a01b038416907fddf252ad1be2c89b69c2b068fc378daa952ba7f163c4a11628f55a4df523b3ef908390a45050565b6116d784848461132d565b6116e384848484611a9a565b610e735760405162461bcd60e51b8152600401610648906124a1565b6001600160a01b0382166117555760405162461bcd60e51b815260206004820181905260248201527f4552433732313a206d696e7420746f20746865207a65726f20616464726573736044820152606401610648565b6000818152600360205260409020546001600160a01b0316156117ba5760405162461bcd60e51b815260206004820152601c60248201527f4552433732313a20746f6b656e20616c7265616479206d696e746564000000006044820152606401610648565b6117c6600083836118ec565b6001600160a01b03821660009081526004602052604081208054600192906117ef908490612593565b909155505060008181526003602052604080822080546001600160a01b0319166001600160a01b03861690811790915590518392907fddf252ad1be2c89b69c2b068fc378daa952ba7f163c4a11628f55a4df523b3ef908290a45050565b604080516001600160a01b0384168152602081018390527f2986ba71bad2d7e501cd12434270b726c11e1185611b8e4bc6d28ca145e626ce910160405180910390a1604080518082019091528181526001600160a01b039092166020909201829052600b55600c80546001600160a01b0319169091179055565b60006001600160e01b0319821663780e9d6360e01b148061053b575061053b82611ba7565b61077e838383611be7565b606060006119068360026125ab565b611911906002612593565b67ffffffffffffffff811115611929576119296126a1565b6040519080825280601f01601f191660200182016040528015611953576020820181803683370190505b509050600360fc1b8160008151811061196e5761196e61268b565b60200101906001600160f81b031916908160001a905350600f60fb1b8160018151811061199d5761199d61268b565b60200101906001600160f81b031916908160001a90535060006119c18460026125ab565b6119cc906001612593565b90505b6001811115611a44576f181899199a1a9b1b9c1cb0b131b232b360811b85600f1660108110611a0057611a0061268b565b1a60f81b828281518110611a1657611a1661268b565b60200101906001600160f81b031916908160001a90535060049490941c93611a3d8161260d565b90506119cf565b508315611a935760405162461bcd60e51b815260206004820181905260248201527f537472696e67733a20686578206c656e67746820696e73756666696369656e746044820152606401610648565b9392505050565b60006001600160a01b0384163b15611b9c57604051630a85bd0160e11b81526001600160a01b0385169063150b7a0290611ade9033908990889088906004016123bd565b602060405180830381600087803b158015611af857600080fd5b505af1925050508015611b28575060408051601f3d908101601f19168201909252611b25918101906121f9565b60015b611b82573d808015611b56576040519150601f19603f3d011682016040523d82523d6000602084013e611b5b565b606091505b508051611b7a5760405162461bcd60e51b8152600401610648906124a1565b805181602001fd5b6001600160e01b031916630a85bd0160e11b149050611325565b506001949350505050565b60006001600160e01b031982166380ac58cd60e01b1480611bd857506001600160e01b03198216635b5e139f60e01b145b8061053b575061053b82611c9f565b6001600160a01b038316611c4257611c3d81600980546000838152600a60205260408120829055600182018355919091527f6e1540171b6c0c960b71a7020d9f60077f6af931a8bbf590da0223dacf75c7af0155565b611c65565b816001600160a01b0316836001600160a01b031614611c6557611c658382611cd4565b6001600160a01b038216611c7c5761077e81611d71565b826001600160a01b0316826001600160a01b03161461077e5761077e8282611e20565b60006001600160e01b03198216637965db0b60e01b148061053b57506301ffc9a760e01b6001600160e01b031983161461053b565b60006001611ce184610c6a565b611ceb91906125ca565b600083815260086020526040902054909150808214611d3e576001600160a01b03841660009081526007602090815260408083208584528252808320548484528184208190558352600890915290208190555b5060009182526008602090815260408084208490556001600160a01b039094168352600781528383209183525290812055565b600954600090611d83906001906125ca565b6000838152600a602052604081205460098054939450909284908110611dab57611dab61268b565b906000526020600020015490508060098381548110611dcc57611dcc61268b565b6000918252602080832090910192909255828152600a90915260408082208490558582528120556009805480611e0457611e04612675565b6001900381819060005260206000200160009055905550505050565b6000611e2b83610c6a565b6001600160a01b039093166000908152600760209081526040808320868452825280832085905593825260089052919091209190915550565b828054611e7090612624565b90600052602060002090601f016020900481019282611e925760008555611ed8565b82601f10611eab57805160ff1916838001178555611ed8565b82800160010185558215611ed8579182015b82811115611ed8578251825591602001919060010190611ebd565b50611ee4929150611ee8565b5090565b5b80821115611ee45760008155600101611ee9565b600067ffffffffffffffff80841115611f1857611f186126a1565b604051601f8501601f19908116603f01168101908282118183101715611f4057611f406126a1565b81604052809350858152868686011115611f5957600080fd5b858560208301376000602087830101525050509392505050565b80356001600160a01b0381168114611f8a57600080fd5b919050565b600082601f830112611fa057600080fd5b611a9383833560208501611efd565b600060208284031215611fc157600080fd5b611a9382611f73565b60008060408385031215611fdd57600080fd5b611fe683611f73565b9150611ff460208401611f73565b90509250929050565b60008060006060848603121561201257600080fd5b61201b84611f73565b925061202960208501611f73565b9150604084013590509250925092565b6000806000806080858703121561204f57600080fd5b61205885611f73565b935061206660208601611f73565b925060408501359150606085013567ffffffffffffffff81111561208957600080fd5b8501601f8101871361209a57600080fd5b6120a987823560208401611efd565b91505092959194509250565b600080604083850312156120c857600080fd5b6120d183611f73565b9150602083013580151581146120e657600080fd5b809150509250929050565b6000806000806080858703121561210757600080fd5b61211085611f73565b9350602085013567ffffffffffffffff8082111561212d57600080fd5b61213988838901611f8f565b9450604087013591508082111561214f57600080fd5b5061215c87828801611f8f565b92505061216b60608601611f73565b905092959194509250565b6000806040838503121561218957600080fd5b61219283611f73565b946020939093013593505050565b6000602082840312156121b257600080fd5b5035919050565b600080604083850312156121cc57600080fd5b82359150611ff460208401611f73565b6000602082840312156121ee57600080fd5b8135611a93816126b7565b60006020828403121561220b57600080fd5b8151611a93816126b7565b60006020828403121561222857600080fd5b813567ffffffffffffffff81111561223f57600080fd5b61132584828501611f8f565b6000806040838503121561225e57600080fd5b50508035926020909101359150565b600081518084526122858160208601602086016125e1565b601f01601f19169290920160200192915050565b8054600090600181811c90808316806122b357607f831692505b60208084108214156122d557634e487b7160e01b600052602260045260246000fd5b8180156122e957600181146122fa57612327565b60ff19861689528489019650612327565b60008881526020902060005b8681101561231f5781548b820152908501908301612306565b505084890196505b50505050505092915050565b60006113256123428386612299565b84612299565b7f416363657373436f6e74726f6c3a206163636f756e74200000000000000000008152600083516123808160178501602088016125e1565b7001034b99036b4b9b9b4b733903937b6329607d1b60179184019182015283516123b18160288401602088016125e1565b01602801949350505050565b6001600160a01b03858116825284166020820152604081018390526080606082018190526000906123f09083018461226d565b9695505050505050565b602080825282518282018190526000919060409081850190868401855b8281101561245357815180516001600160a01b031685528601516bffffffffffffffffffffffff16868501529284019290850190600101612417565b5091979650505050505050565b602081526000611a93602083018461226d565b604081526000612486604083018561226d565b8281036020840152612498818561226d565b95945050505050565b60208082526032908201527f4552433732313a207472616e7366657220746f206e6f6e20455243373231526560408201527131b2b4bb32b91034b6b83632b6b2b73a32b960711b606082015260800190565b6020808252602f908201527f4552433732314d657461646174613a2055524920717565727920666f72206e6f60408201526e3732bc34b9ba32b73a103a37b5b2b760891b606082015260800190565b60208082526031908201527f4552433732313a207472616e736665722063616c6c6572206973206e6f74206f6040820152701ddb995c881b9bdc88185c1c1c9bdd9959607a1b606082015260800190565b600082198211156125a6576125a661265f565b500190565b60008160001904831182151516156125c5576125c561265f565b500290565b6000828210156125dc576125dc61265f565b500390565b60005b838110156125fc5781810151838201526020016125e4565b83811115610e735750506000910152565b60008161261c5761261c61265f565b506000190190565b600181811c9082168061263857607f821691505b6020821081141561265957634e487b7160e01b600052602260045260246000fd5b50919050565b634e487b7160e01b600052601160045260246000fd5b634e487b7160e01b600052603160045260246000fd5b634e487b7160e01b600052603260045260246000fd5b634e487b7160e01b600052604160045260246000fd5b6001600160e01b0319811681146109c257600080fdfea264697066735822122093458722a18aacb865525ff782dd5b6baab7f21a1abdf4e649092c79985b885564736f6c63430008050033",
  "devdoc": {
    "kind": "dev",
    "methods": {
      "approve(address,uint256)": {
        "details": "See {IERC721-approve}."
      },
      "balanceOf(address)": {
        "details": "See {IERC721-balanceOf}."
      },
      "burn(uint256)": {
        "details": "Burns `tokenId`. See {ERC721-_burn}. Requirements: - The caller must own `tokenId` or be an approved operator."
      },
      "constructor": {
        "details": "Grants `DEFAULT_ADMIN_ROLE`, `MINTER_ROLE` and `PAUSER_ROLE` to the account that deploys the contract. Token URIs will be autogenerated based on `baseURI` and their token IDs. See {ERC721-tokenURI}."
      },
      "getApproved(uint256)": {
        "details": "See {IERC721-getApproved}."
      },
      "getRoleAdmin(bytes32)": {
        "details": "Returns the admin role that controls `role`. See {grantRole} and {revokeRole}. To change a role's admin, use {_setRoleAdmin}."
      },
      "grantRole(bytes32,address)": {
        "details": "Grants `role` to `account`. If `account` had not been already granted `role`, emits a {RoleGranted} event. Requirements: - the caller must have ``role``'s admin role."
      },
      "hasRole(bytes32,address)": {
        "details": "Returns `true` if `account` has been granted `role`."
      },
      "isApprovedForAll(address,address)": {
        "details": "See {IERC721-isApprovedForAll}."
      },
      "mint(address,string,string,address)": {
        "details": "Creates a new token for `to`. Its token ID will be automatically assigned (and available on the emitted {IERC721-Transfer} event), and the token URI autogenerated based on the base URI passed at construction. See {ERC721-_mint}. Requirements: - the caller must have the `MINTER_ROLE`."
      },
      "name()": {
        "details": "See {IERC721Metadata-name}."
      },
      "ownerOf(uint256)": {
        "details": "See {IERC721-ownerOf}."
      },
      "renounceRole(bytes32,address)": {
        "details": "Revokes `role` from the calling account. Roles are often managed via {grantRole} and {revokeRole}: this function's purpose is to provide a mechanism for accounts to lose their privileges if they are compromised (such as when a trusted device is misplaced). If the calling account had been granted `role`, emits a {RoleRevoked} event. Requirements: - the caller must be `account`."
      },
      "revokeRole(bytes32,address)": {
        "details": "Revokes `role` from `account`. If `account` had been granted `role`, emits a {RoleRevoked} event. Requirements: - the caller must have ``role``'s admin role."
      },
      "royaltyInfo(uint256,uint256)": {
        "params": {
          "salePrice": "- the sale price of the NFT asset specified by _tokenId",
          "tokenId": "- the NFT asset queried for royalty information"
        },
        "returns": {
          "receiver": "- address of who should be sent the royalty payment",
          "royaltyAmount": "- the royalty payment amount for _salePrice"
        }
      },
      "safeTransferFrom(address,address,uint256)": {
        "details": "See {IERC721-safeTransferFrom}."
      },
      "safeTransferFrom(address,address,uint256,bytes)": {
        "details": "See {IERC721-safeTransferFrom}."
      },
      "setApprovalForAll(address,bool)": {
        "details": "See {IERC721-setApprovalForAll}."
      },
      "symbol()": {
        "details": "See {IERC721Metadata-symbol}."
      },
      "tokenByIndex(uint256)": {
        "details": "See {IERC721Enumerable-tokenByIndex}."
      },
      "tokenOfOwnerByIndex(address,uint256)": {
        "details": "See {IERC721Enumerable-tokenOfOwnerByIndex}."
      },
      "tokenURI(uint256)": {
        "details": "See {IERC721Metadata-tokenURI}."
      },
      "totalSupply()": {
        "details": "See {IERC721Enumerable-totalSupply}."
      },
      "transferFrom(address,address,uint256)": {
        "details": "See {IERC721-transferFrom}."
      }
    },
    "version": 1
  },
  "userdoc": {
    "kind": "user",
    "methods": {},
    "notice": "ERC721 token contract, including:  - ability for holders to burn (destroy) their tokens  - a minter role that allows for token minting (creation)  - integration into royalty standards This contract uses {AccessControl} to lock permissioned functions using the different roles - head to its documentation for details. The account that deploys the contract will be granted the minter and admin roles, as well as the default admin role.",
    "version": 1
  },
  "storageLayout": {
    "storage": [
      {
        "astId": 166,
        "contract": "contracts/HollyPlus.sol:MintableArtistCollection",
        "label": "_roles",
        "offset": 0,
        "slot": "0",
        "type": "t_mapping(t_bytes32,t_struct(RoleData)161_storage)"
      },
      {
        "astId": 497,
        "contract": "contracts/HollyPlus.sol:MintableArtistCollection",
        "label": "_name",
        "offset": 0,
        "slot": "1",
        "type": "t_string_storage"
      },
      {
        "astId": 499,
        "contract": "contracts/HollyPlus.sol:MintableArtistCollection",
        "label": "_symbol",
        "offset": 0,
        "slot": "2",
        "type": "t_string_storage"
      },
      {
        "astId": 503,
        "contract": "contracts/HollyPlus.sol:MintableArtistCollection",
        "label": "_owners",
        "offset": 0,
        "slot": "3",
        "type": "t_mapping(t_uint256,t_address)"
      },
      {
        "astId": 507,
        "contract": "contracts/HollyPlus.sol:MintableArtistCollection",
        "label": "_balances",
        "offset": 0,
        "slot": "4",
        "type": "t_mapping(t_address,t_uint256)"
      },
      {
        "astId": 511,
        "contract": "contracts/HollyPlus.sol:MintableArtistCollection",
        "label": "_tokenApprovals",
        "offset": 0,
        "slot": "5",
        "type": "t_mapping(t_uint256,t_address)"
      },
      {
        "astId": 517,
        "contract": "contracts/HollyPlus.sol:MintableArtistCollection",
        "label": "_operatorApprovals",
        "offset": 0,
        "slot": "6",
        "type": "t_mapping(t_address,t_mapping(t_address,t_bool))"
      },
      {
        "astId": 1468,
        "contract": "contracts/HollyPlus.sol:MintableArtistCollection",
        "label": "_ownedTokens",
        "offset": 0,
        "slot": "7",
        "type": "t_mapping(t_address,t_mapping(t_uint256,t_uint256))"
      },
      {
        "astId": 1472,
        "contract": "contracts/HollyPlus.sol:MintableArtistCollection",
        "label": "_ownedTokensIndex",
        "offset": 0,
        "slot": "8",
        "type": "t_mapping(t_uint256,t_uint256)"
      },
      {
        "astId": 1475,
        "contract": "contracts/HollyPlus.sol:MintableArtistCollection",
        "label": "_allTokens",
        "offset": 0,
        "slot": "9",
        "type": "t_array(t_uint256)dyn_storage"
      },
      {
        "astId": 1479,
        "contract": "contracts/HollyPlus.sol:MintableArtistCollection",
        "label": "_allTokensIndex",
        "offset": 0,
        "slot": "10",
        "type": "t_mapping(t_uint256,t_uint256)"
      },
      {
        "astId": 3770,
        "contract": "contracts/HollyPlus.sol:MintableArtistCollection",
        "label": "royalty",
        "offset": 0,
        "slot": "11",
        "type": "t_struct(RoyaltyInfo)3767_storage"
      },
      {
        "astId": 2517,
        "contract": "contracts/HollyPlus.sol:MintableArtistCollection",
        "label": "_artistAuctionRoyaltyAddress",
        "offset": 0,
        "slot": "13",
        "type": "t_address"
      },
      {
        "astId": 2520,
        "contract": "contracts/HollyPlus.sol:MintableArtistCollection",
        "label": "_tokenIdTracker",
        "offset": 0,
        "slot": "14",
        "type": "t_struct(Counter)2172_storage"
      },
      {
        "astId": 2522,
        "contract": "contracts/HollyPlus.sol:MintableArtistCollection",
        "label": "_ipfsGatewayURL",
        "offset": 0,
        "slot": "15",
        "type": "t_string_storage"
      },
      {
        "astId": 2534,
        "contract": "contracts/HollyPlus.sol:MintableArtistCollection",
        "label": "tokenInfo",
        "offset": 0,
        "slot": "16",
        "type": "t_mapping(t_uint256,t_struct(TokenInfo)2529_storage)"
      }
    ],
    "types": {
      "t_address": {
        "encoding": "inplace",
        "label": "address",
        "numberOfBytes": "20"
      },
      "t_array(t_uint256)dyn_storage": {
        "base": "t_uint256",
        "encoding": "dynamic_array",
        "label": "uint256[]",
        "numberOfBytes": "32"
      },
      "t_bool": {
        "encoding": "inplace",
        "label": "bool",
        "numberOfBytes": "1"
      },
      "t_bytes32": {
        "encoding": "inplace",
        "label": "bytes32",
        "numberOfBytes": "32"
      },
      "t_mapping(t_address,t_bool)": {
        "encoding": "mapping",
        "key": "t_address",
        "label": "mapping(address => bool)",
        "numberOfBytes": "32",
        "value": "t_bool"
      },
      "t_mapping(t_address,t_mapping(t_address,t_bool))": {
        "encoding": "mapping",
        "key": "t_address",
        "label": "mapping(address => mapping(address => bool))",
        "numberOfBytes": "32",
        "value": "t_mapping(t_address,t_bool)"
      },
      "t_mapping(t_address,t_mapping(t_uint256,t_uint256))": {
        "encoding": "mapping",
        "key": "t_address",
        "label": "mapping(address => mapping(uint256 => uint256))",
        "numberOfBytes": "32",
        "value": "t_mapping(t_uint256,t_uint256)"
      },
      "t_mapping(t_address,t_uint256)": {
        "encoding": "mapping",
        "key": "t_address",
        "label": "mapping(address => uint256)",
        "numberOfBytes": "32",
        "value": "t_uint256"
      },
      "t_mapping(t_bytes32,t_struct(RoleData)161_storage)": {
        "encoding": "mapping",
        "key": "t_bytes32",
        "label": "mapping(bytes32 => struct AccessControl.RoleData)",
        "numberOfBytes": "32",
        "value": "t_struct(RoleData)161_storage"
      },
      "t_mapping(t_uint256,t_address)": {
        "encoding": "mapping",
        "key": "t_uint256",
        "label": "mapping(uint256 => address)",
        "numberOfBytes": "32",
        "value": "t_address"
      },
      "t_mapping(t_uint256,t_struct(TokenInfo)2529_storage)": {
        "encoding": "mapping",
        "key": "t_uint256",
        "label": "mapping(uint256 => struct MintableArtistCollection.TokenInfo)",
        "numberOfBytes": "32",
        "value": "t_struct(TokenInfo)2529_storage"
      },
      "t_mapping(t_uint256,t_uint256)": {
        "encoding": "mapping",
        "key": "t_uint256",
        "label": "mapping(uint256 => uint256)",
        "numberOfBytes": "32",
        "value": "t_uint256"
      },
      "t_string_storage": {
        "encoding": "bytes",
        "label": "string",
        "numberOfBytes": "32"
      },
      "t_struct(Counter)2172_storage": {
        "encoding": "inplace",
        "label": "struct Counters.Counter",
        "members": [
          {
            "astId": 2171,
            "contract": "contracts/HollyPlus.sol:MintableArtistCollection",
            "label": "_value",
            "offset": 0,
            "slot": "0",
            "type": "t_uint256"
          }
        ],
        "numberOfBytes": "32"
      },
      "t_struct(RoleData)161_storage": {
        "encoding": "inplace",
        "label": "struct AccessControl.RoleData",
        "members": [
          {
            "astId": 158,
            "contract": "contracts/HollyPlus.sol:MintableArtistCollection",
            "label": "members",
            "offset": 0,
            "slot": "0",
            "type": "t_mapping(t_address,t_bool)"
          },
          {
            "astId": 160,
            "contract": "contracts/HollyPlus.sol:MintableArtistCollection",
            "label": "adminRole",
            "offset": 0,
            "slot": "1",
            "type": "t_bytes32"
          }
        ],
        "numberOfBytes": "64"
      },
      "t_struct(RoyaltyInfo)3767_storage": {
        "encoding": "inplace",
        "label": "struct RoyaltyConfig.RoyaltyInfo",
        "members": [
          {
            "astId": 3764,
            "contract": "contracts/HollyPlus.sol:MintableArtistCollection",
            "label": "bps",
            "offset": 0,
            "slot": "0",
            "type": "t_uint256"
          },
          {
            "astId": 3766,
            "contract": "contracts/HollyPlus.sol:MintableArtistCollection",
            "label": "receiver",
            "offset": 0,
            "slot": "1",
            "type": "t_address"
          }
        ],
        "numberOfBytes": "64"
      },
      "t_struct(TokenInfo)2529_storage": {
        "encoding": "inplace",
        "label": "struct MintableArtistCollection.TokenInfo",
        "members": [
          {
            "astId": 2524,
            "contract": "contracts/HollyPlus.sol:MintableArtistCollection",
            "label": "metadataCID",
            "offset": 0,
            "slot": "0",
            "type": "t_string_storage"
          },
          {
            "astId": 2526,
            "contract": "contracts/HollyPlus.sol:MintableArtistCollection",
            "label": "contentCID",
            "offset": 0,
            "slot": "1",
            "type": "t_string_storage"
          },
          {
            "astId": 2528,
            "contract": "contracts/HollyPlus.sol:MintableArtistCollection",
            "label": "submitterAddress",
            "offset": 0,
            "slot": "2",
            "type": "t_address"
          }
        ],
        "numberOfBytes": "96"
      },
      "t_uint256": {
        "encoding": "inplace",
        "label": "uint256",
        "numberOfBytes": "32"
      }
    }
  }
}